{
  "contractName": "FakToken",
  "abi": [
    {
      "constant": true,
      "inputs": [],
      "name": "name",
      "outputs": [
        {
          "name": "",
          "type": "string"
        }
      ],
      "payable": false,
      "stateMutability": "view",
      "type": "function"
    },
    {
      "constant": true,
      "inputs": [],
      "name": "totalSupply",
      "outputs": [
        {
          "name": "",
          "type": "uint256"
        }
      ],
      "payable": false,
      "stateMutability": "view",
      "type": "function"
    },
    {
      "constant": true,
      "inputs": [],
      "name": "decimals",
      "outputs": [
        {
          "name": "",
          "type": "uint8"
        }
      ],
      "payable": false,
      "stateMutability": "view",
      "type": "function"
    },
    {
      "constant": true,
      "inputs": [],
      "name": "FAKRATE",
      "outputs": [
        {
          "name": "",
          "type": "uint256"
        }
      ],
      "payable": false,
      "stateMutability": "view",
      "type": "function"
    },
    {
      "constant": true,
      "inputs": [],
      "name": "symbol",
      "outputs": [
        {
          "name": "",
          "type": "string"
        }
      ],
      "payable": false,
      "stateMutability": "view",
      "type": "function"
    },
    {
      "inputs": [],
      "payable": false,
      "stateMutability": "nonpayable",
      "type": "constructor"
    },
    {
      "payable": true,
      "stateMutability": "payable",
      "type": "fallback"
    },
    {
      "anonymous": false,
      "inputs": [
        {
          "indexed": true,
          "name": "from",
          "type": "address"
        },
        {
          "indexed": true,
          "name": "to",
          "type": "address"
        },
        {
          "indexed": false,
          "name": "value",
          "type": "uint256"
        },
        {
          "indexed": false,
          "name": "data",
          "type": "bytes"
        }
      ],
      "name": "Transfer",
      "type": "event"
    },
    {
      "constant": true,
      "inputs": [
        {
          "name": "_owner",
          "type": "address"
        }
      ],
      "name": "balanceOf",
      "outputs": [
        {
          "name": "",
          "type": "uint256"
        }
      ],
      "payable": false,
      "stateMutability": "view",
      "type": "function"
    },
    {
      "constant": false,
      "inputs": [],
      "name": "createToken",
      "outputs": [],
      "payable": true,
      "stateMutability": "payable",
      "type": "function"
    },
    {
      "constant": false,
      "inputs": [
        {
          "name": "_to",
          "type": "address"
        },
        {
          "name": "_value",
          "type": "uint256"
        }
      ],
      "name": "transfer",
      "outputs": [],
      "payable": false,
      "stateMutability": "nonpayable",
      "type": "function"
    },
    {
      "constant": false,
      "inputs": [
        {
          "name": "_to",
          "type": "address"
        },
        {
          "name": "_value",
          "type": "uint256"
        },
        {
          "name": "_data",
          "type": "bytes"
        }
      ],
      "name": "transfer",
      "outputs": [],
      "payable": false,
      "stateMutability": "nonpayable",
      "type": "function"
    }
  ],
  "bytecode": "0x60606040526000600255341561001457600080fd5b33600160006101000a81548173ffffffffffffffffffffffffffffffffffffffff021916908373ffffffffffffffffffffffffffffffffffffffff160217905550610cbe806100646000396000f300606060405260043610610099576000357c0100000000000000000000000000000000000000000000000000000000900463ffffffff16806306fdde03146100a357806318160ddd14610131578063313ce5671461015a5780635f41df721461018957806370a08231146101b257806395d89b41146101ff5780639cbf9e361461028d578063a9059cbb14610297578063be45fd62146102d9575b6100a161035e565b005b34156100ae57600080fd5b6100b6610499565b6040518080602001828103825283818151815260200191508051906020019080838360005b838110156100f65780820151818401526020810190506100db565b50505050905090810190601f1680156101235780820380516001836020036101000a031916815260200191505b509250505060405180910390f35b341561013c57600080fd5b6101446104d2565b6040518082815260200191505060405180910390f35b341561016557600080fd5b61016d6104d8565b604051808260ff1660ff16815260200191505060405180910390f35b341561019457600080fd5b61019c6104dd565b6040518082815260200191505060405180910390f35b34156101bd57600080fd5b6101e9600480803573ffffffffffffffffffffffffffffffffffffffff169060200190919050506104e2565b6040518082815260200191505060405180910390f35b341561020a57600080fd5b61021261052b565b6040518080602001828103825283818151815260200191508051906020019080838360005b83811015610252578082015181840152602081019050610237565b50505050905090810190601f16801561027f5780820380516001836020036101000a031916815260200191505b509250505060405180910390f35b61029561035e565b005b34156102a257600080fd5b6102d7600480803573ffffffffffffffffffffffffffffffffffffffff16906020019091908035906020019091905050610564565b005b34156102e457600080fd5b61035c600480803573ffffffffffffffffffffffffffffffffffffffff1690602001909190803590602001909190803590602001908201803590602001908080601f0160208091040260200160405190810160405280939291908181526020018383808284378201915050505050509190505061087e565b005b6000803411151561036e57600080fd5b61038260c834610c0190919063ffffffff16565b90506103d681600360003373ffffffffffffffffffffffffffffffffffffffff1673ffffffffffffffffffffffffffffffffffffffff16815260200190815260200160002054610c3990919063ffffffff16565b600360003373ffffffffffffffffffffffffffffffffffffffff1673ffffffffffffffffffffffffffffffffffffffff1681526020019081526020016000208190555061042e81600254610c3990919063ffffffff16565b600281905550600160009054906101000a900473ffffffffffffffffffffffffffffffffffffffff1673ffffffffffffffffffffffffffffffffffffffff166108fc349081150290604051600060405180830381858888f19350505050151561049657600080fd5b50565b6040805190810160405280600881526020017f46616b546f6b656e00000000000000000000000000000000000000000000000081525081565b60025481565b601281565b60c881565b6000600360008373ffffffffffffffffffffffffffffffffffffffff1673ffffffffffffffffffffffffffffffffffffffff168152602001908152602001600020549050919050565b6040805190810160405280600381526020017f46414b000000000000000000000000000000000000000000000000000000000081525081565b600081600360003373ffffffffffffffffffffffffffffffffffffffff1673ffffffffffffffffffffffffffffffffffffffff16815260200190815260200160002054101515156105b457600080fd5b61060682600360008673ffffffffffffffffffffffffffffffffffffffff1673ffffffffffffffffffffffffffffffffffffffff16815260200190815260200160002054610c3990919063ffffffff16565b600360008573ffffffffffffffffffffffffffffffffffffffff1673ffffffffffffffffffffffffffffffffffffffff1681526020019081526020016000208190555061069b82600360003373ffffffffffffffffffffffffffffffffffffffff1673ffffffffffffffffffffffffffffffffffffffff16815260200190815260200160002054610c5590919063ffffffff16565b600360003373ffffffffffffffffffffffffffffffffffffffff1673ffffffffffffffffffffffffffffffffffffffff168152602001908152602001600020819055506106e783610c6e565b156107db578290508073ffffffffffffffffffffffffffffffffffffffff1663c0ee0b8a33846040518363ffffffff167c0100000000000000000000000000000000000000000000000000000000028152600401808373ffffffffffffffffffffffffffffffffffffffff1673ffffffffffffffffffffffffffffffffffffffff16815260200182815260200180602001828103825260058152602001807f656d7074790000000000000000000000000000000000000000000000000000008152506020019350505050600060405180830381600087803b15156107ca57600080fd5b5af115156107d757600080fd5b5050505b8273ffffffffffffffffffffffffffffffffffffffff163373ffffffffffffffffffffffffffffffffffffffff167fe19260aff97b920c7df27010903aeb9c8d2be5d310a2c67824cf3f15396e4c16846040518082815260200180602001828103825260058152602001807f656d7074790000000000000000000000000000000000000000000000000000008152506020019250505060405180910390a3505050565b600082600360003373ffffffffffffffffffffffffffffffffffffffff1673ffffffffffffffffffffffffffffffffffffffff16815260200190815260200160002054101515156108ce57600080fd5b61092083600360008773ffffffffffffffffffffffffffffffffffffffff1673ffffffffffffffffffffffffffffffffffffffff16815260200190815260200160002054610c3990919063ffffffff16565b600360008673ffffffffffffffffffffffffffffffffffffffff1673ffffffffffffffffffffffffffffffffffffffff168152602001908152602001600020819055506109b583600360003373ffffffffffffffffffffffffffffffffffffffff1673ffffffffffffffffffffffffffffffffffffffff16815260200190815260200160002054610c5590919063ffffffff16565b600360003373ffffffffffffffffffffffffffffffffffffffff1673ffffffffffffffffffffffffffffffffffffffff16815260200190815260200160002081905550610a0184610c6e565b15610b29578390508073ffffffffffffffffffffffffffffffffffffffff1663c0ee0b8a3385856040518463ffffffff167c0100000000000000000000000000000000000000000000000000000000028152600401808473ffffffffffffffffffffffffffffffffffffffff1673ffffffffffffffffffffffffffffffffffffffff16815260200183815260200180602001828103825283818151815260200191508051906020019080838360005b83811015610acb578082015181840152602081019050610ab0565b50505050905090810190601f168015610af85780820380516001836020036101000a031916815260200191505b50945050505050600060405180830381600087803b1515610b1857600080fd5b5af11515610b2557600080fd5b5050505b8373ffffffffffffffffffffffffffffffffffffffff163373ffffffffffffffffffffffffffffffffffffffff167fe19260aff97b920c7df27010903aeb9c8d2be5d310a2c67824cf3f15396e4c1685856040518083815260200180602001828103825283818151815260200191508051906020019080838360005b83811015610bc0578082015181840152602081019050610ba5565b50505050905090810190601f168015610bed5780820380516001836020036101000a031916815260200191505b50935050505060405180910390a350505050565b600080831415610c145760009050610c33565b8183029050818382811515610c2557fe5b04141515610c2f57fe5b8090505b92915050565b60008183019050828110151515610c4c57fe5b80905092915050565b6000828211151515610c6357fe5b818303905092915050565b600080823b90506000811115610c875760019150610c8c565b600091505b509190505600a165627a7a72305820d3f07a3290794b9086c17918ed09fa23476464bd78aaf11513aad8d3a1c9c0630029",
  "source": "pragma solidity ^0.4.18;\n\nimport \"./erc223TokenInterface.sol\";\nimport \"./safemath.sol\";\nimport \"./receivingContract.sol\";\n\ncontract FakToken is ERC223 {\n    using safeMath for uint;\n    string public constant name = \"FakToken\";\n    string public constant symbol = \"FAK\";\n    uint8 public constant decimals = 18; \n    address owner;\n    uint public totalSupply = 0;\n    uint public constant FAKRATE = 200;\n    mapping(address => uint256) private balances;\n    \n    function FakToken() public {\n        owner = msg.sender;\n    }\n    \n    function () public payable {\n        createToken();\n    }\n    function balanceOf(address _owner) public view returns (uint) {\n        return balances[_owner];\n    }\n    \n    function isContract(address _to) private returns (bool is_contract) {\n        uint length;\n        assembly {\n            length := extcodesize(_to)\n        }\n        if (length > 0) {\n            return true;\n        } else {\n            return false;\n        }\n    }\n    \n    function createToken() public payable {\n        require(msg.value > 0);\n        uint tokens = msg.value.mul(FAKRATE);\n        balances[msg.sender] = balances[msg.sender].add(tokens);\n        totalSupply = totalSupply.add(tokens);\n        owner.transfer(msg.value);\n    }\n    \n    function transfer(address _to, uint256 _value) public {\n        require(balances[msg.sender] >= _value);\n        balances[_to] = balances[_to].add(_value);\n        balances[msg.sender] = balances[msg.sender].sub(_value);\n        if (isContract(_to)) {\n            ReceivingContract receiver = ReceivingContract(_to);\n            receiver.tokenFallback(msg.sender, _value, \"empty\");\n        }\n        emit Transfer(msg.sender, _to, _value, \"empty\");\n    }\n    \n    function transfer(address _to, uint256 _value, bytes _data) public {\n        require(balances[msg.sender] >= _value);\n        balances[_to] = balances[_to].add(_value);\n        balances[msg.sender] = balances[msg.sender].sub(_value);\n        if (isContract(_to)) {\n             ReceivingContract receiver = ReceivingContract(_to);\n            receiver.tokenFallback(msg.sender, _value, _data);\n        }\n        emit Transfer(msg.sender, _to, _value, _data);\n    }\n    \n}\n",
  "sourcePath": "/Users/andeladeveloper/faktoken-crowdsale/contracts/FakToken.sol",
  "compiler": {
    "name": "solc",
    "version": "0.4.21+commit.dfe3193c.Emscripten.clang"
  },
  "schemaVersion": "2.0.0",
  "updatedAt": "2018-05-16T15:46:37.820Z"
}